:020000040800F2
:10000000A80C002005010008F903000859030008A6
:10001000F5030008EF0100083D0E00080000000095
:100020000000000000000000000000007107000850
:100030004102000800000000810400085D0800087B
:100040001F0100081F0100081F0100081F01000810
:100050001F0100081F0100081F0100081F01000800
:100060001F0100081F0100081F0100081F010008F0
:100070001F0100081F0100081F0100081F010008E0
:100080001F0100081F0100081F0100081F010008D0
:100090009D0C00081F0100081F0100081F01000837
:1000A0001F0100081F0100081F0100081F010008B0
:1000B000450900081F0100081F0100081F01000872
:1000C0001F0100081F0100081F0100081F01000890
:1000D0001F010008D90A00081F0100081F010008BD
:1000E0001F0100081F0100081F010008DFF810D0E1
:1000F00000F04CF8004800471F150008AFF30080DF
:10010000A80C00200648804706480047FEE7FEE7A7
:10011000FEE7FEE7FEE7FEE7FEE7FEE7FEE7FEE7B7
:10012000E5080008ED0000082DE9F05F0546002015
:1001300092469B4688460646814640241BE0284658
:1001400041464746224600F042F853465A46C01AF6
:10015000914110D311461846224600F029F82D1A75
:1001600067EB01084F4622460120002100F020F8ED
:1001700017EB00094E41201EA4F10104DFDC4846C4
:1001800031462A464346BDE8F09F0000064C074D25
:1001900006E0E06840F0010394E807009847103457
:1001A000AC42F6D3FFF7A6FF3C1500085C1500082B
:1001B000202A04DB203A00FA02F100207047914027
:1001C000C2F1200320FA03F3194390407047202A1C
:1001D00004DB203A21FA02F00021704721FA02F3F1
:1001E000D040C2F12002914008431946704700BF39
:1001F000FEE70000014609B909487047012901D10D
:100200000020FAE7022901D10020F6E7032901D1F5
:100210000020F2E7042901D10020EEE70020ECE7FE
:100220007C00002008B525208DF8000000208DF806
:10023000020001208DF80300684600F0DFF808BDD9
:1002400070472DE9F04102460025002600200023DA
:100250000024002791F803C00CF00F0591F803C0AB
:100260000CF0100CBCF1000F03D091F802C04CEA66
:10027000050591F800C0BCF1000F31D014680020D2
:100280002BE04FF0010C0CFA00F3B1F800C00CEABF
:1002900003069E4220D183004FF00F0C0CFA03F7A7
:1002A000BC4305FA03FC4CEA040491F803C0BCF11A
:1002B000280F06D14FF0010C0CFA00FCC2F814C054
:1002C0000AE091F803C0BCF1480F05D14FF0010CD2
:1002D0000CFA00FCC2F810C0401C0828D1D31460EE
:1002E000B1F800C0BCF1FF0F34DD546800202EE0EF
:1002F00000F1080C4FF0010808FA0CF3B1F800C047
:100300000CEA03069E4221D183004FF00F0C0CFA39
:1003100003F7BC4305FA03FC4CEA040491F803C05C
:10032000BCF1280F05D100F1080C08FA0CF8C2F84E
:10033000148091F803C0BCF1480F07D100F1080CFC
:100340004FF0010808FA0CF8C2F81080401C082889
:10035000CED35460BDE8F08100BF00BF70470000FD
:1003600000B585B00121052000F072F90121880354
:1003700000F06EF94FF40070ADF8100018208DF801
:10038000130003208DF8120004A91848FFF759FF45
:100390004FF48060ADF8100004208DF8130004A91C
:1003A0001248FFF74EFF4FF4E13000900020ADF807
:1003B0000400ADF80600ADF80800ADF80C000C2004
:1003C000ADF80A0069460A4800F0F2FB012240F24B
:1003D0002551074800F0C7FB0121054800F08DFBBF
:1003E0004021034800F080FB05B000BD000801403B
:1003F0000038014000BFFEE77047000070B50021E3
:1004000000230F22C47804B3154C246804F4E0647C
:10041000C4F5E064210AC1F10403CA40447804FA37
:1004200003F184781440214309010E4C0678A1554C
:10043000047804F01F050124AC4005786D11AD006F
:1004400005F1E025C5F8004109E0047804F01F0536
:100450000124AC40044D0678761145F8264070BD65
:100460000CED00E000E400E080E100E0024901431F
:10047000024A1160704700000000FA050CED00E030
:100480007047000010B515A000F0DAFC23A12EA0E3
:1004900000F0D6FC31A132A000F0D2FC35A138A08A
:1004A00000F0CEFC0123062203213AA000F0C8FC94
:1004B000012203213EA000F0C3FC44A000F0C0FCD8
:1004C00044A000F0BDFC49A000F0BAFC4EA000F032
:1004D000B7FC02A000F0B4FC10BD00002A2A2A2AB2
:1004E0002A2A2A2A2A2A2A2A2A2A2A2A2A2A2A2A6C
:1004F0002A2A2A2A2A2A2A2A2A2A2A2A2A2A2A2A5C
:100500002A2A2A2A2A2A2A2A2A2A2A2A2A2A2A2A4B
:100510002A2A2A2A2A2A2A2A2A0A0D0056342D3063
:1005200030335FB4AEBFDABACD5043BBFACDA8D0FA
:10053000C5A3A8B4AEBFDAD6D0B6CFA1A24649466D
:100540004FBBFAD6C6A3A9002A20C0FDB3CCC3FB7B
:10055000B3C62020203A2025730D0A00312E30002A
:100560002A20C0FDB3CCB0E6B1BE2020203A202521
:10057000730D0A00323031352D30382D3330000004
:100580002A20B7A2B2BCC8D5C6DA2020203A20253E
:10059000730D0A002A20B9CCBCFEBFE2B0E6B1BEA2
:1005A000203A2025642E25642E25640D0A000000C3
:1005B0002A20434D534953B0E6B1BE20203A2025AE
:1005C000582E253032580D0A000000002A200A0D4E
:1005D000000000002A205151202020203A203132F2
:1005E0003935373434363330200D0A002A20456D32
:1005F00061696C203A2061726D666C794071712E70
:10060000636F6D200D0A00002A20436F70797269B4
:10061000676874207777772E61726D666C792E63C8
:100620006F6D20B0B2B8BBC0B3B5E7D7D30D0A0029
:1006300029B1064AD2690243044BDA6104E0034A55
:10064000D2698243014BDA6170470000001002401A
:1006500029B1064A92690243044B9A6104E0034AB5
:1006600092698243014B9A6170470000001002407A
:1006700030B500210022002400232D4D6D6805F0C7
:100680000C0121B1042905D0082923D105E0294D09
:10069000056022E0274D05601FE0254D6D6805F4DB
:1006A0007012234D6D6805F48034022505EB9242EB
:1006B0001CB9214D554305600BE01D4D6D6805F4D7
:1006C00000351DB11C4D5543056002E0194D5543E1
:1006D000056002E0174D056000BF00BF144D6D6856
:1006E00005F0F0010909154D6B5C0568DD404560BA
:1006F0000F4D6D6805F4E061090A104D6B5C4568AB
:10070000DD4085600A4D6D6805F46051C90A0B4DE6
:100710006B5C4568DD40C560054D6D6805F4404182
:10072000890B074D6B5CC568B5FBF3F5056130BD02
:100730000010024000127A0000093D001D00002058
:100740002D00002008B501210820FFF781FF0320BC
:100750008DF8020010208DF803000420ADF8000091
:1007600069460248FFF76DFD08BD0000000C01401E
:10077000704710B500F002F810BD00000CB5002065
:10078000019000903348006840F48030314908609F
:1007900000BF3048006800F4003000900198401C11
:1007A0000190009818B90198B0F5A06FF1D12948CF
:1007B000006800F4003010B10120009001E000203A
:1007C00000900098012843D12348006840F01000B1
:1007D000214908600846006820F0030008600846C8
:1007E000006840F0020008601A48406819494860F3
:1007F0000846406848600846406840F480604860A9
:100800000846406820F47C1048600846406840F480
:10081000E81048600846006840F08070086000BF3B
:100820000C48006800F000700028F9D009484068C2
:1008300020F00300074948600846406840F0020085
:10084000486000BF0348406800F00C000828F9D158
:100850000CBD0000001002400020024010B500F066
:1008600001F810BD10B51A48006840B1184800687A
:10087000401E1749086010B901201649087000246D
:1008800008E004EB4401144A02EB810000F015FE7D
:10089000601CC4B2042CF4DB10480068401C0F49F3
:1008A0000860084600686FF00041884202D10020CD
:1008B0000A49086000F000FE09480078401CC0B2F8
:1008C000074908700A2801DB0020087010BD0000ED
:1008D00000000020040000204C0000200800002040
:1008E0001C00002010B51348006840F001001149B9
:1008F000086008464068104908400E4948600846AC
:1009000000680E4908400B4908600846006820F45A
:10091000802008600846406820F4FE0048604FF4DC
:100920001F008860FFF725FF4FF000600449086052
:1009300010BD0000001002400000FFF8FFFFF6FEAF
:1009400008ED00E010B50221480700F058F858B152
:100950000221480700F044F800220221480700F075
:100960005FF81B48006880470421080700F047F83B
:1009700058B10421080700F033F8002204210807C9
:1009800000F04EF81348006880470821C80600F0C0
:1009900036F858B10821C80600F022F800220821D4
:1009A000C80600F03DF80C48006880471021880612
:1009B00000F025F858B11021880600F011F8002247
:1009C0001021880600F02CF804480068804710BD0C
:1009D0000C0000201000002014000020180000204F
:1009E000CA430282704721B1028842F001020280AC
:1009F00004E002884FF6FE731A400280704730B55B
:100A00000246002000230024158A05EA0103958987
:100A100005EA010413B10CB1012000E0002030BD53
:100A20001AB183890B43838102E083898B438381DD
:100A300070470000002202881D4B98420ED01D4BCB
:100A400098420BD0B0F1804F08D01B4B984205D094
:100A50001A4B984202D01A4B984204D14FF68F732A
:100A60001A404B881A43174B984207D0164B9842AE
:100A700004D04FF6FF431A40CB881A4302808B887C
:100A800083850B8803850A4B98420BD0094B98420B
:100A900008D00E4B984205D00D4B984202D00D4B1A
:100AA000984201D10B7A03860123838270470000AC
:100AB000002C0140003401400004004000080040C8
:100AC000000C0040001000400014004000400140B5
:100AD000004401400048014010B5024800F0E4F82D
:100AE00010BD00007C00002001F40072B2F5007F10
:100AF00000D100BFCA430280704721B1828942F40D
:100B00000052828104E082894DF6FF731A4082818F
:100B1000704770B50246002400230025002040F6EF
:100B20006A16B14200D100BFC1F3421501F01F03A4
:100B3000012606FA03F3012D02D19689334006E01F
:100B4000022D02D1168A334001E0968A33400C12FE
:100B5000012606FA04F41688344013B10CB10120C2
:100B600000E0002070BDF0B50346002400260025FB
:100B7000002040F66A17B94200D100BF1846C1F301
:100B8000421401F01F06012707FA06F5012C01D1D6
:100B90000C3004E0022C01D1103000E014301AB106
:100BA00007682F43076002E00768AF430760F0BDA6
:100BB0002DE9F04786B005460E460024A24600BF48
:100BC000A1460027B08900B100BF2F462C8A4CF601
:100BD000FF700440F08804432C82AC894EF6F31079
:100BE0000440B08831890843718908430443AC81CB
:100BF000AC8A4FF6FF400440B0890443AC8201A8A0
:100C0000FFF736FD1F48874202D1DDF810A001E052
:100C1000DDF80CA0A88900F4004040B10AEBCA003E
:100C200000EB0A1031684900B0FBF1F807E00AEB6D
:100C3000CA0000EB0A1031688900B0FBF1F86420AB
:100C4000B8FBF0F004012009642101FB1089A88998
:100C500000F4004040B1322000EBC900B0FBF1F0DD
:100C600000F00700044308E0322000EB0910642183
:100C7000B0FBF1F000F00F0004432C8106B0BDE89A
:100C8000F08700000038014001468888C0F3080062
:100C90007047C1F308028280704700000148C069B4
:100CA000704700000010024070B5044640F2255124
:100CB0002068FFF72EFFE0B12068FFF7E5FFC5B21F
:100CC000E18AA0684554E08A401C80B2E082E18954
:100CD000884201DB0020E082608BE189884202DAF1
:100CE000608B401C6083606A10B12846616A884747
:100CF00000BF40F227712068FFF70BFF08B3A08AFE
:100D000060B9002240F227712068FFF72CFF012212
:100D100040F226612068FFF726FF37E0638A6268A9
:100D2000D15C2068FFF7B5FF608A401C80B260820A
:100D3000A189884201DB00206082A08A401EA08237
:100D400024E040F226612068FFF7E3FEF0B1A08ABC
:100D500050B9002240F226612068FFF704FF206AA4
:100D6000A0B1206A804711E0638A6268D15C206884
:100D7000FFF78FFF608A401C80B26082A1898842A1
:100D800001DB00206082A08A401EA08270BDF8B501
:100D900004460E461746002529E00EE0012000F02B
:100DA0006EF8A08A0090002000F069F8A089BDF8D4
:100DB0000010884200DD01E000BFEFE700BF705D7A
:100DC000228A61688854012000F059F8208A401C6A
:100DD00080B22082A189884201DB00202082A08A83
:100DE000401CA082002000F04AF8681C85B2BD4279
:100DF000D3DB012240F227712068FFF7B4FEF8BD73
:100E00000A480B4908600B4848600B4888604FF45B
:100E100080608881C881002008824882C882088357
:100E200048838882C8610862486270470038014080
:100E30007C000020A4000020A404002000BFFEE7E6
:100E40000FB4054B10B503A9044A029800F01AF834
:100E500010BC5DF814FB00000D15000848000020D0
:100E600002E008C8121F08C1002AFAD17047704773
:100E7000002001E001C1121F002AFBD1704780F35E
:100E8000108870472DE9FF4F8DB00F4605460026AC
:100E900006E025280BD0DDE90F1290476D1C761C6B
:100EA00028780028F5D111B03046BDE8F08F002435
:100EB000A246A1460122E94900E0044315F8013F9A
:100EC000203B02FA03F00842F7D128782A2810D0F4
:100ED0006FF02F022878A0F13001092914D80AEB0D
:100EE0008A0102EB410144F0020400EB010A6D1C8F
:100EF000F0E701CF5FEA000A03D544F40054CAF1D9
:100F0000000A44F002046D1C28782E2817D115F829
:100F1000010F44F004042A280ED06FF02F02287825
:100F2000A0F1300109290AD809EB890102EB41013E
:100F300000EB01096D1CF2E757F8049B6D1C287843
:100F40006C280FD006DC4C2817D068280DD06A28F2
:100F500014D104E0742810D07A280FD10DE044F4A5
:100F600000140AE044F4801401E044F44014697869
:100F7000814202D104F580146D1C6D1C28786E2806
:100F80001ED00CDC632830D004DC00288BD058281D
:100F900011D19FE0642867D069280CD164E07328E0
:100FA0002DD004DC6F2872D0702804D194E075280D
:100FB0006ED078286DD0DDE90F129047761C4BE19A
:100FC000C4F30250022806D0032809D0042801CF18
:100FD00009D0066040E101CFF117C0E900613BE1B3
:100FE00001CF068038E1067036E117F8040B8DF862
:100FF000000000208DF80100EB46012003E057F8C7
:1010000004BB4FF0FF3061074FF0000102D40DE048
:1010100008F10101884649450FDA8045F8DB1BF8E5
:1010200008100029F4D108E008F101018846814246
:10103000FADB1BF808100029F6D1DDE90F23AAEB33
:1010400008008146214600F031F9304400EB0806E3
:1010500004E0DDE90F121BF8010B9047B8F101081D
:10106000F7D221464846F2E00A21C4F302524FF07B
:10107000000B0891022A04D001CFC117032A09D01E
:101080000AE0FF1D27F00707F7E8020108E02CE05F
:101090001EE01FE000B2C117042A01D140B2C117FF
:1010A000021E71F1000206DA0023D0EB030063EBAD
:1010B00001012D2202E0220504D52B228DF82420E7
:1010C000012203E0E20701D02022F7E7904653E037
:1010D0000A210BE0102109E010214FF0000B44F031
:1010E00004044FF00809089103E008214FF0000BB9
:1010F0000891C4F30252022A04D001CF0021032A2E
:1011000006D006E0FF1D27F00707F7E8020103E01D
:1011100080B2042A00D1C0B24FF0000822072BD5BC
:101120002A78702A07D0DDF820C08CF0100C5CEA19
:101130000B0C05D00EE040228DF82420012208E09F
:1011400050EA010306D030238DF824308DF8252095
:1011500002229046089B83F0080353EA0B030BD14D
:1011600050EA010201D1620706D530228DF8242011
:101170004FF00108A9F101092A78582A04D038A2B1
:101180000B9208AA0A920BE03AA2F9E75B46089A8A
:10119000FEF7CAFF0B9B9B5C0A9A521E0A921370C1
:1011A00050EA0102F2D10A98ADEB000000F1200BE9
:1011B000600702D524F4803401E04FF00109D945DD
:1011C00002DDA9EB0B0000E0002000EB0B01414425
:1011D0000890AAEB010AE00306D4DDE90F232146BB
:1011E000504600F063F806444FF0000908E009A9F2
:1011F00011F80900DDE90F12904709F10109761C89
:10120000C145F4DBE0030CD5DDE90F232146504650
:1012100000F04CF8064404E0DDE90F12302090475E
:10122000761C0899481E08900029F5DC08E00A9809
:101230000A990078491C0A91DDE90F129047761C43
:10124000BBF10001ABF1010BF1DC21465046DDE9B9
:101250000F2300F019F806446D1C21E6092801004F
:10126000303132333435363738396162636465661C
:1012700000000000303132333435363738394142DE
:1012800043444546000000002DE9F0410446002596
:101290001E461746880404D405E039462020B0478E
:1012A0006D1C641EF9D52846BDE8F0812DE9F0419A
:1012B000044600251E469046C80301D5302700E0AD
:1012C0002027880404D505E041463846B0476D1C08
:1012D000641EF9D52846BDE8F08110B54FF4407082
:1012E000FFF7C4F800F03AF800F064F800F0B2F844
:1012F00010BD00007FB501210846FFF799F9154898
:10130000006846081448B6FBF0F085B24FF6FF744B
:10131000ADF80840ADF804500020ADF80A00ADF873
:10132000060001A94FF08040FFF784FB01218807E8
:10133000FFF759FB1C208DF8000004208DF80100F8
:1013400000208DF8020001208DF803006846FFF7A9
:1013500055F87FBD3400002040420F0008B5012140
:101360000820FFF775F9012000F07EF8022000F058
:101370007BF8032000F078F803208DF8020010209D
:101380008DF803000820ADF8000069460848FEF714
:1013900058FF1020ADF8000069460548FEF751FFE0
:1013A0002020ADF8000069460148FEF74AFF08BD5D
:1013B000000C014070B5002416E0002004EB44014D
:1013C000204A02EB8101486004EB440102EB8101F9
:1013D000886004EB440102EB8101487004EB440196
:1013E00002F82100601CC4B2042CE6DB1648006839
:1013F0004FF47A72B0FBF2F1B1F1807F00D31DE0BF
:1014000021F07F40401E4FF0E022506150170F2224
:10141000002807DA13071E0E0C4B00F00F052D1FD6
:101420005E5503E013071D0E094B1D5400BF00203D
:101430004FF0E02290610720106100BFFFF75AFFD4
:1014400070BD00004C0000203400002018ED00E0CA
:1014500000E400E010B5FFF7D3FCFEF781FFFFF7D3
:1014600071F9FEF7DFFE10BD012803D10821074AFC
:1014700011600AE0022803D11021044A116004E03F
:10148000032802D12021014A11607047100C01404D
:10149000012803D10821074A11600AE0022803D17C
:1014A0001021044A116004E0032802D12021014ADE
:1014B00011607047140C01407047416851B1416898
:1014C000491E416031B9012141700178012901D1E2
:1014D0008168416070472DE9F04105460E46174688
:1014E0002846FEF787FE04460CB9BDE8F0813A466F
:1014F00031462046FFF74BFC00BFF6E713B5044624
:10150000012201A92046FFF7E6FF1CBD70B5044685
:101510000D46E1B20020FFF7F1FF204670BDFFF756
:10152000DCFEFEF7AFFF0120FFF7B2FF0220FFF75E
:10153000AFFF0320FFF7ACFF00BFFEE75C1500081C
:10154000000000204C000000600E0008A8150008F4
:101550004C0000205C0C0000700E00080000000031
:10156000000000000000000000000000000000007B
:101570000000000000000000000000000001020365
:10158000040102030406070809020406080000001B
:1015900000A24A0400000000000000000102030451
:0815A000060708090000000025
:04000005080000ED02
:00000001FF
